:020000040800F2
:1000000000000220ADF800080DF900080DF9000805
:100010000DF900080DF900080DF9000800000000B6
:100020000000000000000000000000006D42000819
:100030000DF90008000000007F4200081948000880
:100040000DF900080DF900080DF900088D460008AB
:100050000DF900080DF900080531000829310008E4
:100060004D31000871310008953100080DF9000884
:1000700075B900080DF900089DB800080DF90008D1
:100080002DB9000855B800080DF900080DF9000851
:100090000DF900080DF900080DF90008B931000844
:1000A0000DF900080DF90008C94900080DF900080C
:1000B0000DF900080DF900080DF900080DF9000808
:1000C0000DF900080DF900080DF900080DF90008F8
:1000D0000DF900087DB7000895B70008ADB7000816
:1000E000193200080DF900080DF900080DF9000893
:1000F0000DF900080DF900080DF900080DF90008C8
:100100000DF900080DF90008174400080DF9000862
:10011000C5B70008DDB700080DF900080DF90008A3
:100120000DF900080DF900080DF900080DF9000897
:100130000DF900080DF900080DF900080DF9000887
:100140000DF900080DF900080DF900080DF9000877
:10015000E5B800080DF900080DB80008F5B700086B
:100160000DF900080DF900080DF900080DF9000857
:100170000DF900080DF900080DF900080DF9000847
:0C0180000DF900080DF90008000000084F
:1001900080B483B000AF78600A4A7B681A607B68DD
:1001A00000221A617B6800225A607B6800229A60F4
:1001B0007B680022DA607B6818460C37BD465DF824
:1001C000047B70479001010890B585B000AFF860DE
:1001D000C7E9002304F03AF8FB681B680C331B687E
:1001E000F86898470346002B02D004F037F80EE079
:1001F00005F00EFB0246FB685A60FB685A68D7E9B7
:100200000034C2E90A3404F029F805F093FA1437EF
:10021000BD4690BD90B585B000AFF860C7E900233A
:1002200004F014F8FB681B6808331B68F8689847EB
:100230000346002B02D004F011F80EE005F0E8FAB6
:100240000246FB689A60FB689A68D7E90034C2E905
:100250000A3404F003F805F06DFA1437BD4690BD7A
:1002600090B585B000AFF860C7E9002303F0EEFF5A
:10027000FB681B6810331B68F86898470346002B1F
:1002800002D003F0EBFF0EE005F0C2FA0246FB6875
:10029000DA60FB68DA68D7E90034C2E90A3403F0AF
:1002A000DDFF05F047FA1437BD4690BD80B582B03A
:1002B00000AF78607B689B68002B04D07B689B68EC
:1002C000184605F0B1FA7B6800229A607B681B69CA
:1002D000002B07D07B681A697B681B691B681B6849
:1002E0001046984700BF0837BD4680BD80B582B034
:1002F00000AF78607B685B68002B04D07B685B682C
:10030000184605F091FA7B6800225A607B681B69E9
:10031000002B08D07B681A697B681B691B68043353
:100320001B681046984700BF0837BD4680BD80B5A2
:1003300082B000AF78607B68DB68002B04D07B68FC
:10034000DB68184605F070FA7B680022DA607B688B
:100350001B69002B08D07B681A697B681B691B68C6
:1003600008331B681046984700BF0837BD4680BD5C
:1003700080B483B000AF786039607B683A681A61F6
:1003800000BF0C37BD465DF8047B704780B582B076
:1003900000AF786039607B68012B07D13B684FF66E
:1003A000FF72934202D103480FF065F800BF08378F
:1003B000BD4680BD8000002080B500AF4FF6FF71C4
:1003C0000120FFF7E3FF80BD80B584B000AFF86087
:1003D000B9607A603B600C4AFB681A60FB683A6857
:1003E0001A61FB687A689A60084B1B685A1C0749B7
:1003F0000A60FA68D360B968F86800F009F8FB6829
:1004000018461037BD4680BDC4020108D001002047
:1004100080B582B000AF786039603B681A687B684D
:100420005A603B687A681A6000F03AF80346002B7D
:1004300002D0034800F09CF900BF0837BD4680BDDC
:100440005002010880B582B000AF7860084A7B682E
:100450001A60084B1B78002B03D1074800F088F97D
:1004600000E000BF7B6818460837BD4680BD00BF6E
:10047000C402010818AB0020A802010880B582B0B0
:1004800000AF78607868FFF7DDFF1421786800F02E
:100490009DFC7B6818460837BD4680BD0000000003
:1004A00080B400AF034B1B78DBB21846BD465DF845
:1004B000047B704700A2002080B584B000AF786054
:1004C0007B68073323F007037B607B68B3F5204F1D
:1004D00004D9154800F04CF9002321E0FFF7E0FFB4
:1004E0000346002B04D0114800F042F9002317E026
:1004F0000F4B1A687B681344B3F5204F04D30D48A3
:1005000000F036F900230BE0094B1B680A4A13443C
:10051000FB60074B1A687B681344054A1360FB684D
:1005200018461037BD4680BD180301087403010842
:10053000D8A10020D0030108D801002080B400AF6A
:1005400000BFBD465DF8047B70472DE9F04389B0DC
:1005500000AF0EF0A5FFC7E90401414BD3E9003419
:10056000D7E90412B1EB030862EB0409404649469F
:100570000DF0EAFE38A3D3E900230EF03DF8034660
:100580000C46C7E90234364AD7E90434C2E90034DC
:10059000344BD3E90012344BD3E90034CD1A62EB6B
:1005A0000406284631460DF0CFFE03460C46C7E947
:1005B00000342C4BD3E900342B4AC2E90034D7E98C
:1005C0000223D7E900010EF017F803460C46254632
:1005D0001C4603F042FD034618460DF079FE024624
:1005E0000B46204629460EF007F803460C461A46ED
:1005F00023464FF000001D490DF01CFD03460C463C
:10060000C7E906344FF00002184BD7E906010EF097
:1006100059F90346002B04D04FF00003134CC7E9EF
:1006200006344FF000024FF00003D7E906010EF048
:100630002BF90346002B05D04FF000034FF00004C8
:10064000C7E90634D7E906010EF08EF903461846CD
:100650002437BD46BDE8F0830000000065CDCD41E4
:10066000E0A1002028AB0020E8A100200000F03F1E
:100670000FB480B582B000AF184B1B68002B26D09A
:100680003B4618460EF044FF07F114037B60FFF76A
:1006900007FF034683F00103DBB2002B05D03B4686
:1006A0003969184601F040FB0AE00D4804F003FEEA
:1006B0003B463969184601F037FB094804F05EFEF5
:1006C00004F021FC3B4618460EF0F4FE00E000BFAB
:1006D0000837BD46BDE8804004B0704740000020A8
:1006E000F0A100200EB480B585B000AF78607B68C3
:1006F000B3F1FF3F05D01C4B1A687B681340002BF9
:100700002AD007F1080318460EF002FF07F1200374
:10071000FB60FFF7C5FE034683F00103DBB2002B4D
:1007200006D007F10803F969184601F0FDFA0BE05D
:100730000E4804F0C0FD07F10803F969184601F0FE
:10074000F3FA0A4804F01AFE04F0DDFB07F108038F
:1007500018460EF0AFFE00E000BF1437BD46BDE8FE
:10076000804003B0704700BF40000020F0A100208F
:1007700080B582B000AF78600C4A7B6813600C4B88
:100780001B6801330A4A13600022796809480EF099
:1007900038FF094B1B78002B03D079680748FFF717
:1007A00067FF00BF0837BD4680BD00BF00000020C6
:1007B0007C00002080000020040000207804010854
:1007C00080B586B000AFF860B9607A60BB683B6105
:1007D000F9680E48FFF74CFF00237B617A697B685C
:1007E0009A420BD23A697B6913441B781946084830
:1007F000FFF73EFF7B6901337B61EFE70548FFF7B9
:1008000037FF00BF1837BD4680BD00BF9804010800
:100810009C040108A404010880B584B000AFF8600E
:10082000B9607A603B60084B1A68FB681340002B84
:1008300005D03A687968B868FFF7C2FF00E000BFEA
:100840001037BD4680BD00BF4000002080B487B097
:1008500000AFF860B9607A60BB68C3F12003FA6842
:1008600002FA03F3FB6000237B617A69BB689A425A
:1008700011D2FB68002B01DA312100E030217A68C7
:100880007B6913440A461A70FB685B00FB607B6956
:1008900001337B61E9E77A68BB68134400221A7070
:1008A0007B6818461C37BD465DF8047B704790B5E1
:1008B0008BB000AFF860B9607A603B6007F1140359
:1008C000BA68F96818460EF033FE3B68BB61FFF763
:1008D000E7FD034683F00103DBB2002B06D007F1EE
:1008E00014037968184601F01FFA0BE00B4804F076
:1008F000E2FC07F114037968184601F015FA07487D
:1009000004F03CFD7C6A07F1140318460EF02EFE3D
:10091000234618462C37BD4690BD00BFF0A10020ED
:100920000CB480B584B000AF7860396007F11C0367
:10093000BB60BB68BA6939687868FFF7B8FFF860D0
:10094000FB6818461037BD46BDE8804002B07047CE
:100950000EB480B585B000AF786007F12003FB606E
:10096000FB68FA694FF47A717868FFF7A0FF00BF5F
:100970001437BD46BDE8804003B0704780B582B0F3
:1009800000AF786039607B68012B07D13B684FF678
:10099000FF72934202D1034804F076FC00BF08378F
:1009A000BD4680BDF0A1002080B500AF4FF6FF71BD
:1009B0000120FFF7E3FF80BD80B485B000AF786011
:1009C0000023FB607B68002B01D100230BE07B68D8
:1009D0001B78002B06D0FB680133FB607B6801337A
:1009E0007B60F4E7FB6818461437BD465DF8047B6E
:1009F000704780B485B000AF786039600023FB6039
:100A00007B68002B01D1002310E07B681B78002B52
:100A10000BD0FB680133FB607B6801337B60FA68B5
:100A20003B689A42F1D3FB6800E0FB681846143734
:100A3000BD465DF8047B704780B485B000AF786038
:100A400039607B68FB603B68002B02D0FB68002BA1
:100A500001D17B6812E03B681B78002B0AD03B6811
:100A60001A78FB681A70FB680133FB603B6801333E
:100A70003B60F0E7FB6800221A707B681846143769
:100A8000BD465DF8047B704780B586B000AF7860E6
:100A900039603B685A1C3A601B78FB75FB7D002B64
:100AA00014BF01230023DBB2002B28D03868FFF7E6
:100AB00083FF38617B685A1C7A601B78FB73FB7B71
:100AC000002B0CBF01230023DBB2002B01D000233D
:100AD00016E0FA7BFB7D9A4200D0EBE73A69396871
:100AE000786800F029F90346002B14BF0123002386
:100AF000DBB2002B00D0DDE77B68013B7B607B68CD
:100B000018461837BD4680BD80B483B000AF78600A
:100B100039607B681B78002B09D07B681B781A46EC
:100B20003B68934203D07B6801337B60F1E77B68CD
:100B30001B781A463B68934201D17B6800E0002392
:100B400018460C37BD465DF8047B704780B487B00B
:100B500000AFF8600B467A60FB72FB68002B01D196
:100B6000FB680FE0FB687B617B68002B09D07B6929
:100B7000FA7A1A707B6901337B617B68013B7B6089
:100B8000F2E7FB6818461C37BD465DF8047B7047EA
:100B900080B487B000AFF860B9607A60FB687B61B1
:100BA000BB683B617B69002B02D03B69002B01D104
:100BB000002311E07B68002B0DD03B691A787B691C
:100BC0001A707B68013B7B603B6901333B617B6949
:100BD00001337B61EEE7FB6818461C37BD465DF8C4
:100BE000047B704780B487B000AFF860B9607A606A
:100BF000FB687B61BB683B617B68002B1AD07B691B
:100C00001A783B691B789A4202D24FF0FF3312E008
:100C10007B691A783B691B789A4201D901230AE063
:100C20007B6901337B613B6901333B617B68013B3D
:100C30007B60E1E7002318461C37BD465DF8047B66
:100C4000704780B487B000AFF860B9607A60FB6825
:100C50007B617B69002B02D0BB68002B01D1002394
:100C600019E07B68002B12D0BB681A787B691A7078
:100C7000BB681B78002B09D0BB680133BB607B6964
:100C800001337B617B68013B7B60EAE700BF7B69E6
:100C900000221A70FB6818461C37BD465DF8047BBD
:100CA000704780B582B000AF786039603868FFF770
:100CB00083FE034601331A4639687868FFF768FFF8
:100CC000034618460837BD4680BD80B485B000AFE6
:100CD000786039607B68002B07D13B68002B01D11D
:100CE000002323E04FF0FF3320E03B68002B01D1CD
:100CF00001231BE07B685A1C7A601B78FB733B68FE
:100D00005A1C3A601B78BB73FA7BBB7B9A4202D2B7
:100D10004FF0FF330AE0FA7BBB7B9A4201D90123F3
:100D200004E0FB7B002B00D0E4E7002318461437D7
:100D3000BD465DF8047B704780B487B000AFF860B3
:100D4000B9607A60FB68002B07D1BB68002B01D12A
:100D500000232BE04FF0FF3328E0BB68002B01D1CC
:100D6000012323E0FB685A1CFA601B78FB75BB6803
:100D70005A1CBA601B78BB757B68002B01D100231D
:100D800014E07B68013B7B60FA7DBB7D9A4202D216
:100D90004FF0FF330AE0FA7DBB7D9A4201D901236F
:100DA00004E0FB7D002B00D0DCE7002318461C3755
:100DB000BD465DF8047B704780B483B000AF7860B7
:100DC00000BF0C37BD465DF8047B704780B582B02C
:100DD00000AF786039607868FFF7EEFF00BF083732
:100DE000BD4680BD90B484B000AFF860C7E9002371
:100DF000FA68D7E90034C2E90E34FA68D7E9063454
:100E0000C2E9103400BF1037BD4690BC7047F0B542
:100E100087B002AF78607B68D3E9103423430AD1EE
:100E20001648FFF7A5FC00224FF0FF306FF000419D
:100E300004F016FDEFE77B68D3E90E340022184674
:100E4000214604F00DFD0EF02BFBC7E902017B6883
:100E5000D3E90E017B68D3E91056D7E90234CDE916
:100E600000342A46334600F063FE03460C467A6897
:100E7000C2E90E3400BF1437BD46F0BDF0040108CE
:100E800080B584B000AF786004F0C2FCF860FB6805
:100E9000002B06D10022094909480EF0B2FB0023BD
:100EA00008E0F86804F09AFCB8607968F86804F023
:100EB000A1FCBB6818461037BD4680BD1C05010863
:100EC000800000200000000090B482B000AF786085
:100ED0007A684FF000034FF00004C2E900347A68EA
:100EE0004FF000034FF00004C2E902347A684FF07B
:100EF00000034FF00004C2E904347B6811229A61B8
:100F00007B6818460837BD4690BC704798B500AF5F
:100F100003F0D2FD03460C461846214698BD90B515
:100F200083B000AF78600EF0BBFA03460C461A4659
:100F30002346786800F08EF803460C461846214692
:100F40000C37BD4690BD90B585B000AFF860C7E9DD
:100F50000023FA68D7E90034C2E904340EF0A0FA9D
:100F600003460C46FA68C2E9023400BF1437BD4696
:100F700090BD90B484B000AFF860C7E90023FA6870
:100F8000D7E90034C2E90034FA68D7E90634C2E987
:100F9000023400BF1037BD4690BC7047F0B585B035
:100FA00000AFF860C7E900230EF07AFA0A4601465E
:100FB000D7E900345D1A64EB0206FB68C3E900560A
:100FC0000EF06EFA03460C46FA68C2E9023400BF1E
:100FD0001437BD46F0BD90B585B000AFF860C7E9E5
:100FE0000023FA68D7E90034C2E900340EF058FA59
:100FF00003460C46FA68C2E9023400BF1437BD4606
:1010000090BD90B482B000AF78607B68D3E90034C3
:10101000184621460837BD4690BC7047F0B585B0EC
:1010200000AFF860C7E90023FB68D3E90012D7E9F5
:101030000034CD1842EB0406FB68C3E900560EF0FD
:101040002FFA03460C46FA68C2E9023400BF14378F
:10105000BD46F0BD2DE9B04F88B000AF7861C7E95B
:1010600002237B69D3E90001D7E90223841841EB0D
:1010700003057B6993ED047B87ED007B7B69D3E9F6
:101080000223D7E90201B0EB020A61EB030B5046E1
:1010900059460DF059F902460B46D7E900010DF00B
:1010A00081F902460B46104619464FF000020C4BE0
:1010B0000CF0C2FF02460B46104619460DF0A2FD89
:1010C00002460B4614EB020845EB0309C7E9068903
:1010D000D7E90634184621462037BD46BDE8B08F13
:1010E0000000E03F2DE9F04387B000AFF860C7E9AA
:1010F0000023FB68D3E90034D7E90012CD1A62EB74
:101100000406284631460DF01FF980468946FB68E3
:10111000D3E90445FB68D3E90223104619460DF0D4
:1011200013F902460B46204629460DF03BF90346CB
:101130000C461A462346404649460CF07DFF0346BE
:101140000C46C7E90434FB68D3E904014FF0000200
:10115000104B0CF071FF03460C461A462346D7E9A4
:1011600004010DF049FA03460C46184621464FF09B
:101170000002094B0CF060FF03460C46184621465E
:101180000DF040FD03460C46184621461C37BD466F
:10119000BDE8F0830000F03F0000E03FB0B58EB046
:1011A00000AFC7E902017A603B60D7E90201924AC9
:1011B00044F694630DF0BEFC03460C467B63D7E90E
:1011C00002018D4A44F694630DF0B4FC1C461346AC
:1011D000C7E90A347A6B894B13447B62786A0DF055
:1011E00077F875A3D3E900230CF024FF03460C46DF
:1011F0001846214672A3D3E900230DF0FDF90346FA
:101200000C46184621460DF067FB03463B627A6A9E
:101210003B6A1A443B6A002B00DA03339B105B42A3
:10122000134403F2F553FB61F8690DF051F866A31E
:10123000D3E900230CF0FEFE03460C461846214677
:1012400063A3D3E900230DF0D7F903460C461846F3
:1012500021460DF041FB0346BB61BB6940F26D12B4
:1012600002FB03F2BB69002B00DA03339B1013442B
:101270007B61FA697B69D31A18460DF029F856A3E9
:10128000D3E900230DF0B8F903460C461846214671
:101290000DF022FB03463B61FA697B69D41A386979
:1012A0000DF016F84CA3D3E900230DF07BF80246AD
:1012B0000B46104619460DF00FFB0346E21ABB6CB5
:1012C0001A603B69591E3B694D4A82FB03021A446E
:1012D000D210DB179A1A13465B0013449B00CA18FE
:1012E0003B681A60BB69A3F593530B3B3A681268DD
:1012F0000732444981FB02018910D217521A1A445D
:101300007B681A60D7E90A013F4A40F246330DF084
:1013100011FC03460C461A46FB6C1A60D7E90A0119
:101320002FA3D3E900230DF005FC03460C46184615
:1013300021464FF03C024FF000030DF0FBFB1C4632
:1013400013461A463B6D1A60D7E90A0126A3D3E972
:1013500000230DF0EFFB03460C46184621464FF0E4
:101360003C024FF000030DF0E5FB1C461346184607
:1013700021460CF0E9FF04460D46D7E90A011AA3FD
:10138000D3E900230DF0D6FB104619460CF0DCFF24
:1013900017A3D3E900230DF02FF902460B46204690
:1013A00029460CF049FE03460C467A6DC2E900342A
:1013B00000BF3837BD46B0BD00000040D07D3C4185
:1013C0000000000088D5E1406666666666865E407D
:1013D0000000000000D4764061545227A0993E409E
:1013E000005847F80D00000000CA9A3B00000000BA
:1013F0000000000065CDCD4100004F9159682500E7
:10140000932449926766666600A0B83090B583B0B1
:1014100000AF78607B68D3E90034184621460CF0B1
:1014200093FF0BA3D3E900230DF0E6F803460C4627
:101430001846214608A3D3E900230CF0FDFD03461E
:101440000C46184621460C37BD4690BDAFF30080D0
:101450000000C05324A5D34200000000002BE94047
:101460002DE9B04388B000AFF860B9607A603B60A6
:10147000FB6840F26F1202FB03F1BB680933384A84
:1014800082FB03025210DB17D21AFB681A44134680
:10149000DB009B1A002B00DA03339B105B42CA1857
:1014A000BB6840F2131101FB03F32E4981FB0301DA
:1014B0004910DB17CB1A1A447B681344A3F5322377
:1014C000A3F2A353FB613A6813461B019B1A9B00CE
:1014D0001A46BB6B1A4413461B019B1A9B00184605
:1014E0000CF0F6FE03460C461A462346D7E91001D7
:1014F0000CF0A2FD03460C46C7E90434FB694FEA31
:10150000E374194A02FB04F144F6946202FB03F20D
:101510000A441549A3FB014553191D460EA3D3E9FF
:101520000023D7E904010CF03DFF02460B461046AC
:1015300019460DF067FB02460B4614EB020845EB1B
:10154000030943464C46184621462037BD46BDE8B0
:10155000B08300BFAFF300800000000065CDCD4137
:10156000ABAAAA2A398EE33800004F91B0B588B0F3
:1015700000AFF860B9607A603B60BB681B78FB76AF
:10158000FB681B883B83FB7E022B05D8FB7E0C335C
:10159000FB763B8B013B3B833B8B42F2107202FBA1
:1015A00003F2BB681B781946642303FB01F3134461
:1015B0007A6812781344564A93422BDC3B8B40F2F4
:1015C0006D1202FB03F3A3F52522A2F65E423B8BCC
:1015D00003F593530C33002B00DA03339B101344B1
:1015E000A3F29B44BB681B78013318460CF070FED5
:1015F00043A3D3E900230CF0D5FE02460B46104668
:1016000019460DF069F9034623447A6812781344A9
:10161000FB6130E03B8B40F26D1202FB03F3A3F55C
:101620002523A3F65C433A8B3A49A1FB0212D20967
:1016300092B213443A8B3749A1FB0212520992B27B
:101640009B1A3A8B920892B29C18FB7E0133184683
:101650000CF03EFE2AA3D3E900230CF0A3FE0246C1
:101660000B46104619460DF037F9034623447A68B5
:1016700012781344FB613B681B7818460CF028FE77
:1016800004460D463B6B1B7818460CF021FE4FF0CC
:101690000002214B0CF0B0FF02460B4620462946C3
:1016A0000CF0CAFC03460C4625461C467B6BD3E96E
:1016B000000115A3D3E900230CF09EFF02460B4660
:1016C000204629460CF0B8FC03460C461846214635
:1016D0004FF00002114B0CF08FFF03460C46C7E998
:1016E0000434F8690CF0E4FDD7E904230CF0A4FC01
:1016F00003460C46184621462037BD46B0BD00BF04
:1017000061545227A0993E40000000000020AC40E8
:10171000CC68F1001F85EB5100004E4000003840BE
:10172000B0B592B000AF78613961FA60BB604FF03C
:1017300000034FF00004C7E910344FF000034FF0EE
:101740000004C7E90E344FF000034FF00004C7E96E
:101750000C344FF000034FF00004C7E906340023B7
:10176000FB620023BB6200237B627B69D3E9003408
:10177000184621460DF0B0F80246B74B13443B62C1
:101780007B69D3E900457B69D3E9002310461946FC
:101790000DF0A2F8034618460CF09AFD02460B46DF
:1017A000204629460CF046FC03460C46C7E9103497
:1017B0003B6A07EE903AF8EE677A9FEDA87A77EEEB
:1017C000C77AFDEEE77A17EE900A0CF081FD98A338
:1017D000D3E900230CF010FF03460C46C7E90E3492
:1017E000386A0CF065FDD7E90E230CF025FC0346A2
:1017F0000C4625461C464FF00002994BD7E90E01D6
:101800000CF0FAFE02460B46204629460CF012FC6C
:1018100003460C461846214687A3D3E900230CF063
:101820000BFC03460C46C7E90C3485A3D3E900231F
:10183000D7E90C010CF0FEFB03460C461846214686
:1018400081A3D3E900230CF0D7FE03460C461846CB
:1018500021460DF041F80346FB62F86A0CF038FDB2
:1018600079A3D3E900230CF09DFD03460C461846EE
:1018700021460DF031F80346BB62B86A0CF028FD32
:1018800003460C461A462346D7E90C010CF0D2FB5E
:1018900003460C46184621466DA3D3E900230CF0FD
:1018A000ABFE03460C46184621460DF015F80346DC
:1018B0007B62B86A0CF00CFD03460C461A462346C0
:1018C000D7E90C010CF0B6FB03460C4625461C4636
:1018D0007B6A07EE903AF8EEE77A9FED627A67EE60
:1018E000877AFCEEE77AC7ED017A3B79DBB21846DE
:1018F0000CF0EEFC02460B46204629460CF09AFB03
:1019000003460C46184621460DF00EF80346DAB29F
:10191000BB681A707B6ADAB27B6A534981FB0301A8
:101920001944C910DB175B1ADBB2194649000B4496
:101930009B00DBB21344DBB2013BDAB2FB681A70E6
:10194000FB6A9AB2FB681B780733484981FB0301A5
:101950008910DB175B1A9BB213449BB2A3F5935318
:101960000B3B9AB23B691A804FF00002404BD7E91B
:1019700010010CF017FD03460C46184621460CF0EA
:10198000D3FF0346DAB2BB6D1A704FF00002384B3A
:10199000D7E910010CF006FD03460C4625461C460F
:1019A000BB6D1B7818460CF093FC02460B46204694
:1019B00029460CF03FFB03460C46C7E90634D7E93D
:1019C00006014FF000022B4B0CF0ECFC03460C46DA
:1019D000184621460CF0A8FF0346DAB2FB6D1A70D8
:1019E000D7E906014FF00002224B0CF0DBFC034666
:1019F0000C4625461C46FB6D1B7818460CF068FC0F
:101A000002460B46204629460CF014FB03460C46C2
:101A1000184621464FF00002164B0CF0C3FC03465B
:101A20000C463A6EC2E9003400BF4837BD46B0BD2F
:101A30000000000088D5E1400000000000D497407D
:101A40006666666666465E400000000000D476402A
:101A500061545227A0993E40019F240082EEE34941
:101A60000000104001CDF4419324499267666666F8
:101A70000000384000004E40B0B582B000AF786042
:101A800039607B68D3E900453B68D3E900010AA3CC
:101A9000D3E900230CF0B0FD02460B462046294650
:101AA0000CF0CAFA03460C46184621460837BD46D4
:101AB000B0BD00BFAFF30080000000000018F5408B
:101AC000B0B584B000AFF860B9607A60FB68D3E964
:101AD00000457B68D3E9002311A1D1E900010CF096
:101AE000A9FA02460B4610461946BB68D3E9002303
:101AF0000CF0A0FA02460B46104619460AA3D3E999
:101B000000230CF079FD02460B46204629460CF0D6
:101B100093FA03460C46184621461037BD46B0BD21
:101B2000643BDF4F8D174040000000000018F54077
:101B30002DE9F04F87B000AFC7E90401C7E90223E0
:101B4000D7E90423002A73F1000307DA3D48FEF7C2
:101B50000FFE4FF0FF346FF000456AE0D7E9022333
:101B6000002A73F1000307DA3748FEF701FE4FF051
:101B7000FF346FF000455CE0D7E91023002A73F1D1
:101B8000000307DA3148FEF7F3FD4FF0FF346FF042
:101B900000454EE0D7E90423D7E91001904271EBEC
:101BA000030302DAD7E9044543E0D7E902231343EC
:101BB00004D14FF0FF346FF000453AE04FF0FF30B2
:101BC0006FF00041D7E90423B0EB020A61EB030B8D
:101BD000D7E90223524573EB0B0304DB4FF0FF34CC
:101BE0006FF0004525E0D7E91001D7E90423861AF4
:101BF0003E6061EB03037B60D7E90223D7E9000174
:101C00000CF098FF02460B4612F1010843F100095F
:101C1000BB6809FB03F2FB6808FB03F3D118BB6840
:101C2000A3FB082319440B46D7E90401141843EB1E
:101C3000010523462C46184621461C37BD46BDE803
:101C4000F08F00BF88050108DC0501083006010897
:101C5000F0B587B000AFC7E902017A603B60D7E911
:101C600002011FA3D3E900230CF064FF03460C46D6
:101C70001A467B681A607B681B684FF000041A4A9A
:101C800002FB04F14FF0FF3202FB03F20A44164953
:101C9000A3FB013422441446D7E90212CD1842EBCB
:101CA0000406C7E90456D7E904124FF000034FF0C9
:101CB00000040C000023C7E90434D7E9040108A399
:101CC000D3E900230CF036FF03460C461A463B6866
:101CD0001A6000BF1C37BD46F0BD00BFAFF30080E7
:101CE00000CA9A3B00000000003665C480B582B08F
:101CF00000AF786039607B68012B07D13B684FF6F5
:101D0000FF72934202D10348FFF7DEF800BF0837A5
:101D1000BD4680BD08A2002080B500AF4FF6FF7120
:101D20000120FFF7E3FF80BD90B59FB000AF786062
:101D300039603B685A1C3A601B7887F8773097F80F
:101D40007730002B14BF01230023DBB2002B00F0FF
:101D50006F84002387F87630002387F875300023DE
:101D600087F87430002387F87330002387F87230C7
:101D700097F87730252B0AD07B681B6808331B68DF
:101D800097F8772011467868984700F04ABC3B687E
:101D90005A1C3A601B7887F87730002387F86B303D
:101DA000202387F86A30032387F8693097F8773063
:101DB000302B09D197F8773087F86A303B685A1C86
:101DC0003A601B7887F8773097F877302F2B0ED949
:101DD00097F87730392B0AD897F87730303B87F867
:101DE0006B303B685A1C3A601B7887F8773097F85D
:101DF00077302E2B37D13B685A1C3A601B7887F816
:101E0000773097F87730002B00F00D8497F8773013
:101E1000303B87F869303B685A1C3A601B7887F87A
:101E2000773097F87730002B00F0FF8397F8773002
:101E30002F2B18D997F87730392B14D897F86930A9
:101E40001A46920013445B00DAB297F877301344D5
:101E5000DBB2303B87F869303B685A1C3A601B782C
:101E600087F87730E2E797F877306C2B08D10123B9
:101E700087F875303B685A1C3A601B7887F87730D2
:101E800097F877306C2B08D1012387F874303B68C2
:101E90005A1C3A601B7887F8773097F87730002B18
:101EA00000F0C58397F87730623B162B00F28F80E5
:101EB00001A252F823F000BFC71F0008CF1F00087F
:101EC0009B1F00086D1F0008871F0008CF1F000818
:101ED000CF1F0008A91F0008CF1F0008CF1F000850
:101EE000CF1F0008CF1F0008CF1F0008571F000892
:101EF000CF1F0008CF1F0008CF1F0008151F0008C4
:101F0000CF1F0008B71F0008CF1F0008CF1F000811
:101F1000BF1F00087B681A1D1368191D11601B681C
:101F2000FB66FB6E5A1CFA661B7887F8773097F8C9
:101F30007730002B14BF01230023DBB2002B00F00D
:101F40006F837B681B6808331B6897F877201146FE
:101F500078689847E5E70823A7F870307B681B6826
:101F600008331B6830217868984746E0012387F8DA
:101F70007230012387F87330012387F876300A2303
:101F8000A7F8703039E0012387F87330012387F810
:101F900076300A23A7F870302FE0012387F87630D7
:101FA0000A23A7F8703028E0002387F876300A2348
:101FB000A7F8703021E00A23A7F870301DE0102345
:101FC000A7F8703019E00223A7F8703015E097F8F1
:101FD0007730632B07D17B681A1D1368191D1160B8
:101FE0001B6887F877307B681B6808331B6897F895
:101FF000772011467868984713E34FF000034FF0BD
:102000000004C7E916344FF000034FF00004C7E99D
:1020100014340023FB6497F87230002B00F03C81ED
:102020007B681A1D1368073323F0070303F10801C7
:102030001160D3E90034C7E91434D7E91423D7E990
:1020400014010CF017FC0346002B15D17B681B68AC
:1020500008331B686E21786898477B681B680833D3
:102060001B686121786898477B681B6808331B6888
:102070006E2178689847D4E2012387F84B304FF0FF
:102080000003AB4CC7E9103497F86B30013BFB639E
:102090004FF000024FF00003D7E914010CF0F4FBFD
:1020A0000346002B02D0FF2387F84B3097F94B30C3
:1020B000B3F1FF3F05D1FB6B002B02DDFB6B013B56
:1020C000FB63FB6B5A1EFA63002BCCBF012300237A
:1020D000DBB2002B0BD04FF00002964BD7E910017A
:1020E0000CF060F903460C46C7E91034E9E797F9AC
:1020F0004B3018460CF0ECF8D7E914230CF052F9E9
:1021000003460C461A462346D7E910010CF0DAFBC9
:102110000346002B00D13DE097F94B3018460CF0F8
:10212000D7F8D7E914230CF03DF903460C461946BD
:10213000224601231C4613460A46D7E910010CF03B
:10214000C1FB0346002B01D100231C46E3B283F000
:102150000103DBB2002B5ED14FF000024FF0000311
:10216000D7E914010CF086FB0346002B53D1FB6C1E
:1021700013F5997F4FDB4FF000026E4BD7E9140146
:102180000CF010F903460C46C7E91434FB6C013B14
:10219000FB64C1E797F94B3018460CF099F8D7E982
:1021A00014230CF0FFF803460C461946224601237F
:1021B0001C4613460A46D7E910010CF06FFB034694
:1021C000002B01D100231C46E3B283F00103DBB2F4
:1021D000002B12D1FB6CB3F5997F0EDC4FF000029F
:1021E000544BD7E914010CF007FA03460C46C7E933
:1021F0001434FB6C0133FB64CCE74FF000024D4B11
:10220000D7E914010CF0CEF803460C46C7E91434A4
:10221000FB6C013BFB64FB6C13F5997F0EDC002328
:10222000FB644FF000034FF00004C7E916344FF091
:1022300000034FF00004C7E9143496E0FB6CB3F5DB
:10224000997F20DB97F94B30002B06DA7B681B68FF
:1022500008331B682D21786898477B681B68083312
:102260001B686921786898477B681B6808331B687E
:102270006E21786898477B681B6808331B68662165
:1022800078689847CDE1D7E914010CF0BBFC034610
:102290000C46C7E9163468E097F87330002B34D049
:1022A0007B681A1D1368073323F0070303F1080145
:1022B0001160D3E90034C7E91434D7E91423D7E90E
:1022C00014010CF0D7FA0346002B15D17B681B686C
:1022D00008331B686E21786898477B681B68083351
:1022E0001B686121786898477B681B6808331B6806
:1022F0006E217868984794E1D7E914010CF082FCCC
:1023000003460C46C7E916342FE097F87430002BCB
:1023100012D07B681A1D1368073323F0070303F1FB
:1023200008011160D3E90034C7E916341DE000BF8D
:102330000000F03F0000244097F87530002B0AD0D1
:102340007B681A1D1368191D11601B684FEAE3743E
:10235000C7E9163409E07B681A1D1368191D11605E
:102360001B684FEAE374C7E9163497F87630002B00
:102370002DD0D7E91634002B74F100030ADB4FF09F
:1023800000024FF00003D7E914010CF07DFA034678
:10239000002B1CD0D7E916345B4264EB4404C7E938
:1023A00016343B6D3B657B6D83F000437B657B683A
:1023B0001B6808331B682D217868984797F86B30A5
:1023C000002B04D097F86B30013B87F86B3097F8FF
:1023D0007430002B04D0D7E91634C7E918340EE066
:1023E00097F87530002B05D0BB6D4FF00004C7E99E
:1023F000183404E0BB6D4FF00004C7E918341A2309
:102400007B6307F114031933FB66FB6E00221A701D
:10241000B7F870304FF00004D7E918011A46234688
:102420000CF0D8FB1C461346DBB2303387F83B3048
:1024300097F83B30392B04D997F83B30073387F8AE
:102440003B30FB6E013BFB66FB6E97F83B201A703E
:10245000B7F870304FF000041A462346D7E9180148
:102460000CF0B8FB03460C46C7E9183497F86B30FC
:10247000002B04D097F86B30013B87F86B30D7E91D
:102480001834234300D0C3E797F86B305A1E87F8FF
:102490006B20002B14BF01230023DBB2002B07D0DD
:1024A000FB6E013BFB66FB6E97F86A201A70EBE748
:1024B000FB6E5A1CFA661B7887F8773097F87730EE
:1024C000002B14BF01230023DBB2002B09D07B6853
:1024D0001B6808331B6897F877201146786898477F
:1024E000E6E797F87330002B41D07B681B68083310
:1024F0001B682E217868984797F869305A1E87F82C
:102500006920002B14BF01230023DBB2002B2ED047
:10251000D7E916010BF018FF03460C461A4623466E
:10252000D7E914010BF086FD03460C46C7E91434C5
:102530004FF00002404BD7E914010BF033FF034684
:102540000C46C7E91434D7E914010CF05BFB0346D1
:102550000C46C7E916347B681B6808331B6897F87C
:1025600058203032D2B2114678689847C4E797F8BD
:102570007230002B3FF4DDAB7B681B6808331B68AF
:10258000652178689847FB6C002B09DA7B681B682B
:1025900008331B682D2178689847FB6C5B42FB640D
:1025A00006233B6307F10C030533FB66FB6E002239
:1025B0001A70B7F87020FB6C93FBF2F102FB01F28A
:1025C0009B1ADBB2303387F82F30FB6E013BFB6682
:1025D000FB6E97F82F201A70B7F87030FA6C92FBE8
:1025E000F3F3FB64FB6C002B00D0E2E7FB6E5A1C9C
:1025F000FA661B7887F8773097F87730002B14BF8E
:1026000001230023DBB2002B3FF493AB7B681B68F4
:1026100008331B6897F87720114678689847E5E7F4
:1026200000BFFFF786BB00BF02E000BF00E000BFB5
:102630007C37BD4690BD00BF000024400FB480B57C
:1026400082B000AF0D4B1B68002B10D03B461846E4
:102650000CF05EFF07F114037B603B4639691846B6
:10266000FFF762FB3B4618460CF024FF00E000BF7A
:102670000837BD46BDE8804004B0704740000020E8
:102680000EB480B587B000AF786007F10C037968AD
:1026900018460CF0EBFF07F128033B6107F10C0330
:1026A000796A1846FFF740FB07F10C0318460DF056
:1026B0000DF800BF1C37BD46BDE8804003B0704731
:1026C00080B483B000AF0346FB7197F9073003F085
:1026D0001F02074997F907305B09012000FA02F24F
:1026E00041F8232000BF0C37BD465DF8047B7047DE
:1026F00000E100E080B483B000AF0346FB7197F9BE
:102700000730DBB203F01F02074997F907305B0976
:10271000012000FA02F2603341F8232000BF0C3799
:10272000BD465DF8047B704700E100E080B500AF76
:10273000124B1B7883F00103DBB2002B1CD00F4B34
:1027400001221A7001214FF4804004F033FE06206C
:10275000FFF7B6FF0720FFF7B3FF0820FFF7B0FF32
:102760000920FFF7ADFF0A20FFF7AAFF1720FFF7A8
:10277000A7FF2820FFF7A4FF00BF80BD28A20020EC
:1027800080B582B000AF7860084611461A4603460D
:102790007B800B467B7013463B707B687A881A807F
:1027A0007B687A781A727B683A785A72786800F097
:1027B00023F8B7F90230184600F008F902467B68A2
:1027C0005A617B680C33184603F0B8FD7B685B895F
:1027D0001A467B68DA607B6802225A747B680022A2
:1027E0001A747B6800221A767B6800225A767B680E
:1027F00018460837BD4680BD80B483B000AF78600E
:102800007B681B7A1A467B68B3F900309BB203F0F1
:102810000F031344102B0DDD7B68B3F900309BB21E
:1028200003F00F034FF6FF7202FA03F39AB27B68CC
:102830005A8118E07B681B7AC3F110034FF6FF72D0
:1028400042FA03F39AB27B685A817B685B891A4625
:102850007B68B3F900309BB203F00F0302FA03F375
:102860009AB27B685A8100BF0C37BD465DF8047B85
:10287000704780B582B000AF78607B6801225A76DD
:102880007B685B681A467B685B681B681C331B6847
:10289000104698477B68B3F900305A4203F00F03A3
:1028A00002F00F0258BF53421BB21946034A0123DC
:1028B0008B40536100BF0837BD4680BD003C0140DE
:1028C00080B485B000AF78600023FB737B685B0841
:1028D0007B607B68002B14BF01230023DBB2002B3D
:1028E00003D0FB7B0133FB73F0E7FB7B1846143707
:1028F000BD465DF8047B704780B483B000AF78605C
:102900007B68274A934234D0254A934213D8254AFC
:10291000934228D0234A934206D8234A93421ED09A
:10292000224A93421DD033E0214A93421DD0214ACE
:1029300093421CD02CE0204A934220D01E4A93425E
:1029400006D81E4A934216D01D4A934215D01FE066
:102950001C4A934216D01C4A934216D018E0012319
:1029600017E0022315E0042313E0082311E01023ED
:102970000FE020230DE040230BE0802309E04FF41B
:10298000807306E04FF4007303E04FF4806300E0CF
:10299000002318460C37BD465DF8047B704700BF26
:1029A00000140240000802400000024000040240FF
:1029B000000C0240001002400020024000180240BB
:1029C000001C0240002402400028024080B483B072
:1029D00000AF0346FB80B7F906300F2B01DC1C4B20
:1029E00030E0B7F906301F2B01DC1A4B2AE0B7F9AB
:1029F00006302F2B01DC184B24E0B7F906303F2BB3
:102A000001DC164B1EE0B7F906304F2B01DC144BEE
:102A100018E0B7F906305F2B01DC124B12E0B7F972
:102A200006306F2B01DC104B0CE0B7F906307F2B22
:102A300001DC0E4B06E0B7F906308B2B01DC0C4BAA
:102A400000E0002318460C37BD465DF8047B704754
:102A5000000002400004024000080240000C024056
:102A6000001002400014024000180240001C024006
:102A70000020024080B483B000AF0346FB80FB8897
:102A800003F00F03012202FA03F39BB218460C373E
:102A9000BD465DF8047B704780B586B000AF034645
:102AA0000A46FB8013467B71B7F90630002B03DB27
:102AB000B7F906308B2B02DD4FF0FF3337E0B7F963
:102AC00006301846FFF782FF7861B7F906301846DE
:102AD000FFF7D0FF03467B827869FFF70DFF0346BF
:102AE0000121184604F0E6FB7869FFF705FF03466D
:102AF0000021184604F07EFC7B8A1846FFF7E0FEB2
:102B000003469BB27A791946786903F0F8FC07F11D
:102B10000803184603F012FC02233B737B8ABB6058
:102B200007F108031946786903F07AFB0023184679
:102B30001837BD4680BD80B584B000AF0346FB802A
:102B4000B7F90630002B03DBB7F906308B2B02DD1B
:102B50004FF0FF331AE007F10803184603F0EEFBCD
:102B600000233B73B7F906301846FFF783FF03468F
:102B7000BB60B7F906301846FFF728FF024607F199
:102B800008031946104603F04BFB00231846103784
:102B9000BD4680BD90B583B000AF78600B467B80AA
:102BA0007B681846FDF7F4FA104A7B681A601C200F
:102BB000FDF782FC02467B689A617B689B69194637
:102BC0001C200CF0A5FD0446B7F9021000230122D9
:102BD0002046FFF7D5FD7B689C617B689B697A681E
:102BE0005A607B6818460C37BD4690BD1C0801082A
:102BF00090B583B000AF78600B467B801C20FDF75A
:102C00005BFC02467B689A617B689B6919461C20C5
:102C10000CF07EFD0446B7F9021000230122204685
:102C2000FFF7AEFD7B689C617B689B697A685A60A0
:102C300000BF0C37BD4690BD80B584B000AFF860D2
:102C40007B600B46FB721346BB72BB7A002B03D032
:102C5000FB689B69BA7A1A72FB689B69FA7A5A72A6
:102C6000FB689B691846FFF7C7FDFB689B695B69BA
:102C7000002B02D14FF0FF3321E0FB689B695B69B9
:102C80001846FFF739FE03460121184604F012FBEF
:102C9000FB689B695B7A002B09D001220021F86850
:102CA00000F011F87968F86800F0CDF804E000222F
:102CB0000021F86800F007F8FFF738FD00231846F8
:102CC0001037BD4680BD80B584B000AFF8600B46BC
:102CD0007A60FB72FB7A042B00F29C8001A252F80E
:102CE00023F000BFF92C0008392D0008832D0008BF
:102CF000BF2D0008FB2D00087B68002B08D0FB6867
:102D00009B6901225A72FB689B6901221A7407E0D1
:102D1000FB689B6900225A72FB689B6900221A7447
:102D2000FB689B695A69FB689B690C33194610461E
:102D300003F076FA00236FE07B68002B1ED07B68DF
:102D4000FF2B1BD8FB689B697A68D2B21A72FB68AA
:102D50009B691846FFF750FDFB689B695A89FB6821
:102D60009B69DA60FB689B695A69FB689B690C3355
:102D70001946104603F054FA00234DE04FF0FF339C
:102D80004AE07B68002B17D07B68002B04D0FB68DF
:102D90009B690122DA7403E0FB689B690022DA7404
:102DA000FB689B695A69FB689B690C33194610469E
:102DB00003F036FA00232FE04FF0FF332CE07B685E
:102DC000002B17D07B68002B04D0FB689B69022284
:102DD000DA7403E0FB689B690022DA74FB689B6984
:102DE0005A69FB689B690C331946104603F018FAC0
:102DF000002311E04FF0FF330EE07B68022B06D872
:102E0000FB689B697A68D2B21A76002304E04FF01F
:102E1000FF3301E04FF0FF3318461037BD4680BD49
:102E200080B582B000AF78600021786800F09CF82F
:102E30007B689B69B3F900301846FFF77CFE00BF42
:102E40000837BD4680BD80B584B000AF786039607A
:102E50000023FB817B689B695B7A002B37D007F1ED
:102E6000080340F2EB3118460CF05EFC7B689B696E
:102E70005B69184603F0DFFA03461AB27B689B6968
:102E80005B891BB2DB431BB213401BB2FB817B6827
:102E90009B69B3F900309BB203F00F033A6802FA62
:102EA00003F39AB27B689B695B8913409AB2FB89F2
:102EB0001343FB817B689B695B69FA89114618465D
:102EC00003F0FCFA07F1080318460CF03DFC00BFC4
:102ED0001037BD4680BD80B582B000AF78607B689A
:102EE0009B695B7A002B17D07B689B695B691846EE
:102EF00003F0A1FA03461A467B689B695B8913407D
:102F00009BB21A467B689B69B3F900309BB203F011
:102F10000F0322FA03F316E07B689B695B6918468E
:102F200003F062FA03461A467B689B695B8913408B
:102F30009BB21A467B689B69B3F900309BB203F0E1
:102F40000F0322FA03F318460837BD4680BD80B44C
:102F500083B000AF78607B689B695B7E18460C3756
:102F6000BD465DF8047B704780B584B000AF7860E3
:102F70000B46FB707B689B69B3F90030B3F1FF3FF0
:102F800000F0A4807B689B69B3F90030002B00DA65
:102F90000F331B111BB2FB737B689B69B3F90030C5
:102FA0005A4203F00F0302F00F0258BF53421BB204
:102FB000BB73BB7BBB60FB78002B5BD0464ABB6816
:102FC00052F823207B689B699A4200F08180424A34
:102FD000BB6852F82330002B48D17B689B691B7A71
:102FE000012B03D93D48FDF7C3FB72E0BA7BFB7BA5
:102FF0001146184605F0B0FE7B689B691B7E012BCD
:1030000004D07B689B691B7E002B08D1344B9A68E7
:10301000BB7B012101FA03F3314913438B607B68C9
:103020009B691B7E022B04D07B689B691B7E002B57
:1030300008D12B4BDA68BB7B012101FA03F3284945
:103040001343CB607B689A692349BB6841F823200E
:103050007B689B6900225A76214B1A68BB7B012151
:1030600001FA03F31E4913430B6032E01D48FDF7DC
:103070007FFB2EE0184ABB6852F823207B689B69CF
:103080009A4226D1164B1A68BB7B012101FA03F341
:10309000DB43134913400B60114B9A68BB7B012142
:1030A00001FA03F3DB430E4913408B600C4BDA68E3
:1030B000BB7B012101FA03F3DB4309491340CB60D9
:1030C000054ABB68002142F8231002E000BF00E07F
:1030D00000BF1037BD4680BD2CA20020800701082C
:1030E000003C0140E007010880B483B000AF786085
:1030F0007B689B6900225A7600BF0C37BD465DF89D
:10310000047B704780B500AF064B1B68002B04D0D2
:10311000044B1B681846FFF7ACFB0620FFF7EAFAE2
:1031200000BF80BD2CA2002080B500AF064B5B68BD
:10313000002B04D0044B5B681846FFF79AFB07206E
:10314000FFF7D8FA00BF80BD2CA2002080B500AFE9
:10315000064B9B68002B04D0044B9B681846FFF776
:1031600088FB0820FFF7C6FA00BF80BD2CA2002014
:1031700080B500AF064BDB68002B04D0044BDB6846
:103180001846FFF776FB0920FFF7B4FA00BF80BDB1
:103190002CA2002080B500AF064B1B69002B04D089
:1031A000044B1B691846FFF764FB0A20FFF7A2FADD
:1031B00000BF80BD2CA2002080B582B000AF144BB0
:1031C0005B693B6005237B607B68092B18DC3A68F0
:1031D0007B6822FA03F303F00103002B0CD00D4AA5
:1031E0007B6852F82330002B06D00A4A7B6852F8DD
:1031F00023301846FFF73DFB7B6801337B60E3E734
:103200001720FFF777FA00BF0837BD4680BD00BF23
:10321000003C01402CA2002080B582B000AF144BCE
:103220005B693B600A237B607B680F2B18DC3A6884
:103230007B6822FA03F303F00103002B0CD00D4A44
:103240007B6852F82330002B06D00A4A7B6852F87C
:1032500023301846FFF70DFB7B6801337B60E3E703
:103260002820FFF747FA00BF0837BD4680BD00BFE2
:10327000003C01402CA2002090B583B000AF7860E4
:103280000B46FB707B681846FCF782FF0B4A7B6895
:103290001A602420FDF710F90346194624200CF08B
:1032A00037FA0446FB781946204600F0B3FD7B68E8
:1032B0009C617B6818460C37BD4690BDA01501087F
:1032C00090B583B000AF78600B46FB702420FDF70B
:1032D000F3F80346194624200CF01AFA0446FB784A
:1032E0001946204600F096FD7B689C6100BF0C37B4
:1032F000BD4690BD80B58EB000AFF860B9607A6011
:10330000FB689B691B6A002B04DBFB689B691B6ADB
:103310000F2B02DD4FF0FF3328E3012387F837300E
:10332000002387F8363007F11C03184603F010FE1F
:1033300000233B63FB689B691B69A74A934202D148
:10334000BB6A3B6301E07B6A3B633A6A3B6BB2FB5F
:10335000F3F3012B03D9022387F8363002E001236F
:1033600087F8363097F83620FB689B69396B01FB8C
:1033700002F25A61FB689B69BA685A60FB689B69F4
:103380005A69FB689B695B68B2FBF3F3FB62FB68FD
:103390009B691B6A032B04DDFB689B691B6A072B77
:1033A00006DDFB6AB3F5803F02D34FF6FF73FB6285
:1033B0007A68FB6A9A4201D9FB6A7B60FB689B6969
:1033C0007A681A60FB689B6901229A6007F114030E
:1033D000184602F0B3FF01233B760023BB7603239C
:1033E0007B760023FB76FB689B691B697A4A9342D4
:1033F00040F09A800121102003F05CFF0021102092
:1034000003F0F8FFFB689B691B7B032B00F28480B1
:1034100001A252F823F000BF2934000865340008E7
:10342000A1340008DD340008FB689B694FF400728A
:103430001A834FF400737B61FB689B69674ADA610A
:10344000FB689B69DB6907F114021146184602F01C
:10345000E7FEFB689B69DB6901220921184603F03E
:103460004EF859E0FB689B694FF400621A834FF4F1
:1034700000637B61FB689B69584ADA61FB689B6962
:10348000DB6907F114021146184602F0C9FEFB6819
:103490009B69DB6901220B21184603F030F83BE001
:1034A000FB689B694FF400521A834FF400537B6111
:1034B000FB689B69494ADA61FB689B69DB6907F134
:1034C00014021146184602F0ABFEFB689B69DB69EB
:1034D00001220D21184603F012F81DE0FB689B69DC
:1034E0004FF480421A834FF480437B61FB689B69F1
:1034F0003A4ADA61FB689B69DB6907F114021146FD
:10350000184602F08DFEFB689B69DB6901220E21E3
:10351000184602F0F4FF00BF0121012003F04AFF2A
:10352000012387F83730E4E1FB689B691B69B3F13D
:10353000804F40F097800121012003F0BBFE002165
:10354000012003F057FFFB689B691B7B032B00F2F4
:10355000818001A252F823F069350008A1350008E6
:10356000E53500081D360008FB689B6901221A83B7
:1035700001237B61FB689B69194ADA61FB689B69DF
:10358000DB6907F114021146184602F049FEFB6898
:103590009B69DB6901220021184602F0B0FF59E067
:1035A000FB689B6902221A8302237B61FB689B698B
:1035B0000B4ADA61FB689B69DB6907F1140211466B
:1035C000184602F02DFEFB689B69DB690122012190
:1035D000184602F094FF3DE0000001400010024058
:1035E00000000240FB689B6904221A8304237B616C
:1035F000FB689B69A44ADA61FB689B69DB6907F198
:1036000014021146184602F00BFEFB689B69DB6949
:1036100001220221184602F072FF1BE0FB689B6941
:1036200008221A8308237B61FB689B69964ADA614A
:10363000FB689B69DB6901220321184602F05FFFEA
:10364000FB689B69DB6907F114021146184602F01A
:10365000E7FD00BF0121012003F08CFE022387F863
:10366000373046E1FB689B691B69884A934240F00A
:1036700091800121072003F01DFE0021072003F0A7
:10368000B9FEFB689B691B7B032B7BD801A252F818
:1036900023F000BFA5360008DD3600081537000806
:1036A0004D370008FB689B6940221A8340237B61E9
:1036B000FB689B69744ADA61FB689B69DB6907F107
:1036C00014021146184602F0ABFDFB689B69DB69EA
:1036D00002220621184602F012FF53E0FB689B69A4
:1036E00080221A8380237B61FB689B69684ADA61C8
:1036F000FB689B69DB6907F114021146184602F06A
:103700008FFDFB689B69DB6902220721184602F0E6
:10371000F6FE37E0FB689B6901221A8301237B6177
:10372000FB689B695B4ADA61FB689B69DB6907F1AF
:1037300014021146184602F073FDFB689B69DB69B1
:1037400002220021184602F0DAFE1BE0FB689B69AA
:1037500002221A8302237B61FB689B694D4ADA616E
:10376000FB689B69DB6907F114021146184602F0F9
:1037700057FDFB689B69DB6902220121184602F0B4
:10378000BEFE00BF0121022003F0F4FD032387F8F1
:103790003730AEE0FB689B691B693F4A934240F0BB
:1037A000A5800121082003F085FD0021082003F0F9
:1037B00021FEFB689B691B7B032B00F28F8001A21B
:1037C00052F823F0D5370008113800084D380008AA
:1037D000A1380008FB689B694FF480521A834FF4AC
:1037E00080537B61FB689B692C4ADA61FB689B69AB
:1037F000DB6907F114021146184602F011FDFB685F
:103800009B69DB6902220C21184602F078FE65E014
:10381000FB689B694FF400521A834FF400537B619D
:10382000FB689B691D4ADA61FB689B69DB6907F1EC
:1038300014021146184602F0F3FCFB689B69DB6931
:1038400002220D21184602F05AFE47E0FB689B69F0
:103850004FF480421A834FF480437B61FB689B697D
:103860000E4ADA61FB689B69DB6907F114021146B5
:10387000184602F0D5FCFB689B69DB6902220E2129
:10388000184602F03CFE29E000000240000400401F
:10389000000802400004024000080040000C024002
:1038A000FB689B694FF400421A834FF400437B612D
:1038B000FB689B692F4ADA61FB689B69DB6907F14A
:1038C00014021146184602F0ABFCFB689B69DB69E9
:1038D00002220F21184602F012FE00BF012104202F
:1038E00003F048FD042387F8373002E04FF0FF3340
:1038F0003CE0FB689B69DA69FB689B691B8B194696
:10390000104602F0B4FD97F83730013B1A4AD35CF9
:10391000002B0BD1FB689B691B69184605F098FAD0
:1039200097F83730013B144A0121D154FB689B6959
:103930001B69124A934206D1FB689B691B690121EE
:10394000184606F055FCFB689B691B69184606F093
:10395000A9FDFB689B69184600F0C8FAFB689B69E3
:103960001B690121184605F0D6FC0023184638379C
:10397000BD4680BD000C02406CA20020000001404A
:1039800080B586B000AFF8600B467A60FB72FB68CA
:103990009B691B6A002B04DBFB689B691B6A0F2B6E
:1039A00002DD4FF0FF3349E0FB7A002B2AD0012BD8
:1039B0003ED1FB689B695A69FB689B695B68B2FBF7
:1039C000F3F37B61FB689B691B6A032B04DDFB68D7
:1039D0009B691B6A072B06DD7B69B3F5803F02D329
:1039E0004FF6FF737B617B68012B03DD7B687A698F
:1039F0009A4202D24FF0FF3320E0FB689B697A685D
:103A00001A6015E07B68002B0ADBFB689B691B686A
:103A10007A6802FB03F2FB689B695B699A4202D9F0
:103A20004FF0FF330AE0FB689B697A685A6000BF79
:103A3000FB689B69184600F059FA002318461837AE
:103A4000BD4680BD80B584B000AF78607B689B695F
:103A50001B6A002BC0F209817B689B691B6A0F2BD4
:103A600000F303817B689B691B69184605F0F0F938
:103A700007F10803184602F061FC00233B737B68E2
:103A80009B691B697B4A934239D17B689B691B7B8D
:103A9000032B00F2EB8001A252F823F0AD3A0008AC
:103AA000C13A0008D53A0008E93A00084FF400731B
:103AB000BB6007F1080319466F4802F0B1FBD5E07F
:103AC0004FF40063BB6007F1080319466A4802F02F
:103AD000A7FBCBE04FF40053BB6007F10803194686
:103AE000654802F09DFBC1E04FF48043BB6007F1E5
:103AF00008031946604802F093FB00BFB6E07B68FC
:103B00009B691B69B3F1804F35D17B689B691B7B37
:103B1000032B00F2AB8001A252F823F02D3B0008EA
:103B20003F3B0008513B0008633B00080123BB609A
:103B300007F108031946514802F072FB96E0022390
:103B4000BB6007F1080319464C4802F069FB8DE0A1
:103B50000423BB6007F108031946484802F060FBE4
:103B600084E00823BB6007F108031946434802F0CC
:103B700057FB00BF7AE07B689B691B69404A934210
:103B800035D17B689B691B7B032B6FD801A252F850
:103B900023F000BFA53B0008B73B0008C93B000865
:103BA000DB3B00084023BB6007F10803194633489C
:103BB00002F036FB5AE08023BB6007F10803194688
:103BC000304802F02DFB51E00123BB6007F10803F0
:103BD00019462D4802F024FB48E00223BB6007F1A0
:103BE00008031946284802F01BFB00BF3EE07B6833
:103BF0009B691B69254A934238D17B689B691B7B73
:103C0000032B33D801A252F823F000BF1D3C00085B
:103C10002F3C0008413C0008553C00084023BB6095
:103C200007F108031946184802F0FAFA1EE080234B
:103C3000BB6007F108031946134802F0F1FA15E0DA
:103C40004FF48073BB6007F1080319460E4802F079
:103C5000E7FA0BE04FF40073BB6007F10803194665
:103C6000094802F0DDFA00BF00E000BF1037BD4692
:103C700080BD00BF00000140001002400000024073
:103C80000004004000080240000402400008004018
:103C900080B584B000AF786039607B689B691B6A2F
:103CA000002B04DB7B689B691B6A0F2B02DD4FF046
:103CB000FF33A5E001233B730023BB7303237B7316
:103CC0000023FB737B689B691B8BBB607B689B69D4
:103CD0001B683A689A4204D37B689B691B68013B66
:103CE0003B603B68002B14D17B689B69DB6907F163
:103CF00008021146184602F093FA7B689B69DA695C
:103D00007B689B691B8B1946104602F0B0FB0023B1
:103D100076E07B689B693A689A607B689B691B695F
:103D2000394A934211D07B689B691B69B3F1804F7C
:103D30000BD07B689B691B69344A934205D07B6832
:103D40009B691B69324A934241D17B689B691B7B0B
:103D5000032B3FD801A252F823F000BF6D3D0008AD
:103D6000853D00089D3D0008B53D00087B689B69C6
:103D700018697B689B691A683B68D31A194605F075
:103D800057FD23E07B689B6918697B689B691A680B
:103D90003B68D31A194605F059FD17E07B689B690B
:103DA00018697B689B691A683B68D31A194605F045
:103DB0005BFD0BE07B689B6918697B689B691A68EF
:103DC0003B68D31A194605F05DFD00BF02E04FF0D5
:103DD000FF3315E03B68002B0AD002233B737B685E
:103DE0009B69DB6907F108021146184602F018FAD0
:103DF0007A687B681B6814331B6810469847002359
:103E000018461037BD4680BD000001400004004048
:103E10000008004080B582B000AF78600B46FB70B0
:103E20007B6802221A607B6801229A607B6800220C
:103E30005A607B684FF0FF321A627B6800221A6179
:103E40007B6800221A737B6800225A617B6800221B
:103E50001A837B680022DA61FB780F2B03D91F4895
:103E6000FCF786FC35E0FA787B681A627B681B6A8F
:103E7000002B00DA03339B10032B29D801A252F840
:103E800023F000BF953E00089D3E0008A73E0008B5
:103E9000AF3E00087B68124A1A610CE07B684FF065
:103EA00080421A6107E07B680E4A1A6103E07B6872
:103EB0000D4A1A6100BF7B681B6A5A4203F0030374
:103EC00002F0030258BF5342DAB27B681A7300E073
:103ED00000BF7B6818460837BD4680BD3809010819
:103EE00000000140000400400008004080B58CB094
:103EF00000AF78607B685B68002B06D17B681B692C
:103F00000821184605F0CFF98FE07B681B69002176
:103F1000184605F0C8F97B685A697B685B68796860
:103F2000096801FB03F3B2FBF3F3013BFB62FB6A9D
:103F3000002B01DA0023FB62FB6A9BB23B847B68A7
:103F40001B687B6200237B8400233B85002387F86A
:103F50002A307B681B6907F120021146184605F0DC
:103F600057F87B681B690121184605F07CF907F1B9
:103F70000C03184605F0E0FB6023BB810123FB81A5
:103F80007B681A687B689B68D31A7B6102233B833A
:103F90007B681B7B032B47D801A252F823F000BF9C
:103FA000B13F0008CF3F0008ED3F00080B4000087C
:103FB0007B681B6907F10C021146184605F0CBF926
:103FC0007B681B690821184605F0DEFC2DE07B6844
:103FD0001B6907F10C021146184605F037FA7B6899
:103FE0001B690821184605F0EBFC1EE07B681B6985
:103FF00007F10C021146184605F0B0FA7B681B6900
:104000000821184605F0FAFC0FE07B681B6907F1F0
:104010000C021146184605F027FB7B681B69082136
:10402000184605F007FD00E000BF3037BD4680BDF3
:1040300080B400AF034B1B781846BD465DF8047B87
:10404000704700BF34AB002080B400AF41F653335B
:104050001846BD465DF8047B704780B400AF034B43
:104060001846BD465DF8047B704700BF7011010023
:1040700080B400AF4CF250331846BD465DF8047B67
:10408000704780B400AF034B1846BD465DF8047B13
:10409000704700BF480A010880B400AF024B1846C1
:1040A000BD465DF8047B70475C0A01080000000013
:1040B00080B483B000AF03463960FB7197F90730D5
:1040C000002B0DDA3B68DAB20E4997F90730DBB204
:1040D00003F00F03043B1201D2B20B441A760BE03B
:1040E0003B68DBB2084A97F9071008461B01D9B2B2
:1040F00013180A4683F8002300BF0C37BD465DF84D
:10410000047B704700ED00E000E100E080B584B082
:1041100000AF1B4B00221A70FF216FF00100FFF768
:10412000C7FFFF214FF0FF30FFF7C2FF00F04AFF4B
:1041300000F080F90246134B1A60134B1B68134AB8
:1041400013604FF4E131124807F038FC00F05AFCDC
:104150003B46184602F0FCFE3B680E4AA2FB0323D6
:104160009B0C19460C48FCF783FA0121072001F04B
:104170003DFE00F013F800BF1037BD4680BD00BF04
:1041800000A2002090A20020107AFF1F3C00002017
:1041900074A2002083DE1B43600B010880B584B04D
:1041A00000AF01214FF0805003F0E4F8012002F04D
:1041B0002FFB012002F06AFD612003F081FA034623
:1041C000002B0CBF01230023DBB2002B00D0F3E750
:1041D0004FF4007002F066FF012002F091FF03F03F
:1041E00013FC002004F060F801214FF4804004F03B
:1041F00081FC4FF4800001F051FF4FF48003BB605D
:1042000000233B7308237B730123BB7307F108036F
:10421000184601F065FE03233B7100237B710023E8
:10422000BB710123FB713B1D184602F02DFA00BF44
:104230001037BD4680BD80B500AF034B01221A7018
:10424000002000F038F8FEE718AB002080B400AF83
:1042500072B600BFBD465DF8047B704780B400AF06
:1042600062B600BFBD465DF8047B7047DFF8DC1422
:104270000868B0E8F04F80F30988704700BF71B656
:10428000EFF309801EF0100F08BF20ED108A20E91F
:10429000F04F01F0E9F8DFF8B4140868B0E8F04F27
:1042A0001EF0100F08BFB0EC108A80F3098861B6C9
:1042B000704700BF00BFB0B588B000AF786045F26E
:1042C000555002F065F90023FB617B68B3F57A7FF6
:1042D00005DA022002F06CF91023FB6105E00620EC
:1042E00002F066F94FF48073FB61214B1B6818469E
:1042F00009F0DEFF04460D46F86909F0D9FF0246D1
:104300000B46204629460AF077F903460C46C7E9D2
:104310000434786809F0DCFF4FF00002154B0AF016
:104320006BF903460C46C7E90234D7E90423D7E901
:1043300002010AF037F803460C46184621460AF0F7
:10434000F3FA0346BB61BB69B3F5805F02D340F665
:10435000FF73BB61BB699BB2184602F039F902F0EA
:1043600047F902F053F900BF2037BD46B0BD00BF8A
:1043700090A2002000408F4080B500AF02F038F9D5
:1043800000BF80BD80B500AF10211A4805F0F6FFD0
:104390000346002B14BF01230023DBB2002B26D0E1
:1043A000154B1B68012B0BD8124805F05AFE124B17
:1043B0001B685A1C10490A6081B2104A22F8131077
:1043C00010210C4806F004F80B4B1B68012B0ED98A
:1043D0000A4B5A88094B1B88D31A9BB21A46084BC2
:1043E0001A60054B00221A60064B01221A7000BFAA
:1043F00080BD00BF000C00409CA20020A0A20020B5
:1044000094A2002098A2002080B400AF00BFBD4657
:104410005DF8047B704780B500AF054B1B68002B2F
:1044200002D1FFF7AFFF01E0FFF7EEFF00BF80BD55
:1044300090A2002080B588B000AF414B1B68002BD4
:1044400002D03F4B1B6876E03E4B00221A603E4B89
:1044500000221A703D4B00221A60012002F016FC67
:10446000612003F02DF90346002B0CBF012300232C
:10447000DBB2002B00D0F3E70121082002F07AFF25
:104480004021334806F0B9F901220021304804F0F8
:1044900045FE0C233B8200237B820123BB820C233D
:1044A000FB8200233B8307F110031946284805F0DF
:1044B000EBFC32233B7700237B770023BB77012380
:1044C000FB7707F11C03184602F0DEF801212048B3
:1044D00004F021FF1E4B00221A82012210211C48E9
:1044E00005F0ECFE184B1B78DBB283F00103DBB266
:1044F000002B00D0F6E7164804F0AAFC3B4618460D
:1045000002F026FD134B9B6803F4E053002B0CBF15
:1045100001230023DBB2002B06D0BA68094B1B68CD
:10452000B2FBF3F3DB0006E0BB685A00054B1B68E7
:10453000B2FBF3F3DB0018462037BD4680BD00BF59
:1045400090A2002094A2002098A200209CA200200B
:10455000000C00400038024080B400AF30BF00BF04
:10456000BD465DF8047B7047F0B589B000AFC7E980
:1045700000010AF095FF0A460146D7E900348B4254
:1045800074EB0203B4BF01230023DBB2002B69D11B
:10459000394B1B68384A23F002031360374B1B6802
:1045A000FB61364B9B68BB61344B5B687B61334B73
:1045B0001B6F324A43F001031367304B1B6F2F4AC6
:1045C00043F4004313672E4B4FF480025A610120DD
:1045D00002F084FA0AF064FF0A460146D7E9003483
:1045E0005D1A64EB02062846314609F0ADFE20A3B1
:1045F000D3E900230AF000F803460C46184621468A
:104600004FF000021F4B09F0F7FF03460C46184617
:1046100021460AF0F7FA03460C46C7E90234BB68A4
:10462000184603F063FE012003F084FE164AD7E922
:104630000034C2E900340121012002F0AFF900206A
:1046400003F078FE0D4AFB6913600C4ABB69936066
:104650000A4A7B695360084B1B68074A43F0020310
:10466000136000E000BF2437BD46F0BDAFF300800B
:104670000000000080842E4110E000E0003802407D
:10468000003C01400000E03FA8A2002098B500AF28
:104690004FF4804004F0A6FA0346002B14BF012318
:1046A0000023DBB2002B1BD00E4BD3E90034012BCF
:1046B00074F1000305DB0B4BD3E900340A4AC2E96D
:1046C0000034084A4FF000034FF00004C2E9003400
:1046D0004FF4804004F0BAFA4FF4800001F0DEFCA1
:1046E00000BF98BDA8A20020B0A2002080B584B071
:1046F00002AF786039607B68012B15D13B684FF6BB
:10470000FF72934210D14FF0FF3301934FF0FF330C
:104710000093392338220321054806F02BFF054A70
:10472000054903480BF0F0FC00BF0837BD4680BDCB
:1047300074A2002010AB002091F7000880B500AFF4
:104740004FF6FF710120FFF7D1FF80BD70A200205E
:1047500080B483B000AF0346FB7197F9073003F0D4
:104760001F02074997F907305B09012000FA02F29E
:1047700041F8232000BF0C37BD465DF8047B70472D
:1047800000E100E080B483B000AF0346FB7197F90D
:104790000730DBB203F01F02074997F907305B09C6
:1047A000012000FA02F2603341F8232000BF0C37E9
:1047B000BD465DF8047B704700E100E080B483B043
:1047C00000AF03463960FB7197F90730002B0DDA13
:1047D0003B68DAB20E4997F90730DBB203F00F03FA
:1047E000043B1201D2B20B441A760BE03B68DBB2F9
:1047F000084A97F9071008461B01D9B213180A4650
:1048000083F8002300BF0C37BD465DF8047B70477A
:1048100000ED00E000E100E090B583B000AF164B82
:104820001B7883F00103DBB2002B1ED10AF038FEA7
:10483000C7E90001D7E9000106F048FB0AF030FEA5
:104840000A4601460D4BD3E90034994272EB04034A
:10485000B4BF01230023DBB2002B08D1084B5B68F7
:10486000074A43F08053536002E000BF00E000BFFE
:104870000C37BD4690BD00BF24000020E8A20020F8
:1048800000ED00E080B582B000AF78607B68B3F1E6
:10489000807F01D301230EE07B6823F07F43084A29
:1048A000013B53600F214FF0FF30FFF787FF044BB0
:1048B00000229A60002318460837BD4680BD00BF1D
:1048C00010E000E080B400AF044B03221A60002324
:1048D0001846BD465DF8047B704700BF10E000E05D
:1048E00080B400AF044B00221A6000231846BD4676
:1048F0005DF8047B704700BF10E000E0B0B500AF8A
:104900000E4B1B68DB0819464FF000020C4BD3E935
:10491000003403FB02F501FB04F00544A1FB030195
:104920006B181946074A4FF000030AF003F90346D3
:104930000C461846FFF7A6FF00BFB0BD10000020D0
:104940000800002040420F00B0B500AF0F4B1B68BD
:10495000DB0819464FF000020D4BD3E9003403FB8E
:1049600002F501FB04F00544A1FB03016B18194695
:10497000084A4FF000030AF0DDF803460C461846DB
:10498000FFF780FFFFF79EFF00BFB0BD10000020C3
:104990000800002040420F0080B500AFFFF7A0FFE5
:1049A00000BF80BD90B482B000AFC7E90001054AE6
:1049B000D7E90034C2E9003400BF0837BD4690BCD7
:1049C000704700BF08000020F8B500AF01210A4879
:1049D00005F0FEFC1A20FFF7D5FE084BD3E90034A2
:1049E00007494FF000025D1844EB0206034BC3E990
:1049F000005600BFF8BD00BF00480140B0A2002033
:104A00008096980080B588B000AF0023FB77012125
:104A10004FF4802002F0CEFC00214FF4802002F001
:104A200069FD3B46184602F093FA214804F010FA5B
:104A30007A68FB68B2FBF3F3012B02D90223FB7700
:104A400001E00123FB774EF660237B61FB68FA7F70
:104A500002FB03F3174AA2FB0323DB0C9BB2013BCF
:104A60009BB23B8200237B8200233B830023BB76E7
:104A700007F1100319460E4804F0CAFA0122012179
:104A80000B4805F01BFC01214FF4802001F0AEF92A
:104A90000121074804F03FFCFF211A20FFF78EFE9A
:104AA0001A20FFF755FE00BF2037BD4680BD00BF6E
:104AB00000480140819F5E16F0B587B000AF00232B
:104AC0007B614FF000034FF00004C7E90234284B2C
:104AD000D3E90034C7E90234264804F06BFB78615F
:104AE000234BD3E90034D7E90212A24208BF99420E
:104AF00000D0ECE74FF000034FF00004C7E90034AA
:104B000019A4D4E90034C7E900347B694FF00004EC
:104B10007A6803FB02F13A6804FB02F20A4439683E
:104B2000A1FB033422441446C7E90034C7E900342A
:104B3000D7E90001104A4FF0000309F0FBFF0346DC
:104B40000C46C7E90034D7E90212D7E90034CD1882
:104B500042EB04062B463446184621461C37BD4618
:104B6000F0BD00BFAFF30080AA21EF0900000000F4
:104B7000B0A200200048014040420F0090B400AFB6
:104B8000054A4FF000034FF00004C2E9003400BFB3
:104B9000BD4690BC704700BFB0A2002098B500AFE2
:104BA000FFF78AFF03460C461846214698BD00BF12
:104BB00080B483B000AF78604FF0FF3318460C37F5
:104BC000BD465DF8047B704780B485B000AFF860E7
:104BD000B9607A60054B0C221A604FF0FF3318461B
:104BE0001437BD465DF8047B704700BF80CD0020C0
:104BF00080B400AF044B0B221A604FF0FF3318460D
:104C0000BD465DF8047B704780CD002080B483B042
:104C100000AF786039603B684FF400525A6000235F
:104C200018460C37BD465DF8047B704780B400AF72
:104C300001231846BD465DF8047B704780B483B0FD
:104C400000AF7860012318460C37BD465DF8047B41
:104C5000704780B483B000AF78603960054B16228E
:104C60001A604FF0FF3318460C37BD465DF8047BE1
:104C7000704700BF80CD002080B483B000AF786063
:104C80003960054B1F221A604FF0FF3318460C376E
:104C9000BD465DF8047B704780CD002080B485B0B0
:104CA00000AFF860B9607A60002318461437BD463B
:104CB0005DF8047B704780B485B000AFF860B960E0
:104CC0007A604FF0FF3318461437BD465DF8047B19
:104CD000704780B485B000AFF860B9607A60002397
:104CE00018461437BD465DF8047B704780B485B024
:104CF00000AF7860144B1B68002B02D1124B134A93
:104D00001A60114B1B68FB600F4B1A687B681A44D2
:104D10000F4B1B785B420F490B449A4206D900BEE9
:104D20000D4B0C221A604FF0FF3306E0064B1A6859
:104D30007B681344044A1360FB6818461437BD4669
:104D40005DF8047B704700BFBCA2002084CD00202A
:104D5000000400000000022080CD002080B483B059
:104D600000AF78604FF0FF3318460C37BD465DF852
:104D7000047B704780B483B000AF7860054B02229B
:104D80001A604FF0FF3318460C37BD465DF8047BC0
:104D9000704700BF80CD002080B483B000AF786042
:104DA000054B0A221A604FF0FF3318460C37BD46F8
:104DB0005DF8047B704700BF80CD002080B586B0D1
:104DC00000AFF860B9607A6000237B617A697B6824
:104DD0009A420BD2BB681B78184600F02AF8BB68D1
:104DE0000133BB607B6901337B61EFE77B68184669
:104DF0001837BD4680BD80B584B000AFF860B9609B
:104E00007A603B603A687968B868FFF7D7FF034675
:104E100018461037BD4680BD80B582B000AF7860BF
:104E200039603868FFF762FF034618460837BD4609
:104E300080BD80B584B000AF78607B68FB73FB7B7E
:104E40000A2B02D10D20FFF7F4FF00F063F80346B0
:104E500013F1100F0CBF01230023DBB2002B24D071
:104E6000FB7B1946164807F039F80346B3F1FF3FBC
:104E70000CBF01230023DBB2002B1BD0FBF710FB80
:104E80000346002B07D04FF0FF326FF000430C4871
:104E9000FBF7C0F9E4E70A4807F09FF8034683F000
:104EA0000103DBB2002BDBD0F5E7FB7B194604489E
:104EB00007F068FDFB7B18461037BD4680BD00BF7C
:104EC00074A2002080B584B000AF78607B68FB607E
:104ED000FB681B78002B07D0FB685A1CFA601B7814
:104EE0001846FFF7A6FFF3E7002318461037BD4624
:104EF00080BD80B400AFFEE780B400AF00BFBD4608
:104F00005DF8047B704780B400AF00BFBD465DF81C
:104F1000047B704780B400AF044B5B68C3F30803A5
:104F2000103B1846BD465DF8047B704700ED00E07D
:104F300080B500AFFFF7EEFF034619460148FDF7C5
:104F40007DFBFEE7BC0B010880B500AF194B5B6829
:104F5000184A23F080435360174BD3F88830164A21
:104F600043F47003C2F88830144B1B68134A43F0B3
:104F700001031360114B00229A60104B1B680F4A0B
:104F800023F0847323F4803313600C4B0C4A5A6073
:104F90000A4B1B68094A23F480231360074B002245
:104FA000DA6000F08DF8044B4FF000629A6000BFA9
:104FB00080BD00BF30EF00E000ED00E000380240AF
:104FC0001030002480B487B000AF00233B61002381
:104FD0007B610223FB600023BB6002237B60334BB9
:104FE0009B6803F00C033B613B69042B09D03B69D0
:104FF000082B0AD03B69002B3DD12D4B2D4A1A605E
:105000003DE02B4B2C4A1A6039E0284B5B689B0D26
:1050100003F00103BB60254B5B6803F03F037B603B
:10502000BB68002B0CD0244A7B68B2FBF3F31F4A09
:1050300052689209C2F3080202FB03F37B610BE0A2
:105040001C4A7B68B2FBF3F3184A52689209C2F318
:10505000080202FB03F37B61144B5B681B0C03F03B
:10506000030301335B00FB607A69FB68B2FBF3F377
:105070000F4A136003E00E4B0E4A1A6000BF0B4B41
:105080009B681B0903F00F030C4AD35CDBB23B6146
:10509000074B1A683B6922FA03F3054A136000BF05
:1050A0001C37BD465DF8047B704700BF00380240E6
:1050B000100000200024F40000127A0014000020E8
:1050C00080B483B000AF00237B6000233B60694B5A
:1050D0001B68684A43F480331360664B1B6803F413
:1050E00000333B607B6801337B603B68002B03D15E
:1050F0007B68B3F5A04FF0D15E4B1B6803F400331F
:10510000002B02D001233B6001E000233B603B68A1
:10511000012B43D1574B1B6C564A43F08053136409
:10512000554B1B68544A43F440431360514B514A5A
:105130009B6893604F4B9B684E4A43F400439360D7
:105140004C4B9B684B4A43F4A0539360494B4B4AEA
:105150005A60484B1B68474A43F08073136000BF96
:10516000444B1B6803F00073002BF9D0444B40F212
:1051700005721A603F4B9B683E4A23F0030393601D
:105180003C4B9B683B4A43F00203936000BF394BA2
:105190009B6803F00C03082BF9D165E0354B1B6CC1
:1051A000344A43F080531364334B1B68324A43F450
:1051B000004313602F4B1B6C2E4A43F08053136443
:1051C00000BF2C4B1B6803F00203002BF9D02A4BC5
:1051D0001B68294A43F080031360264B1B68254A4D
:1051E00023F08073136000BF224B1B6803F0007331
:1051F000002BF9D11F4B234A5A601E4B1B681D4AD6
:1052000043F08073136000BF1A4B1B6803F00073F8
:10521000002BF9D01A4B40F202721A60184B1B682F
:1052200003F00F03022B00D0FEE7124B9B68114ADC
:1052300043F00203936000BF0E4B9B6803F008032A
:10524000082BF9D10B4B9B680A4A23F0F0039360BB
:10525000084B9B68074A43F480539360054B9B6857
:10526000044A23F46043936000BF0C37BD465DF8E9
:10527000047B70470038024000700040085440270B
:10528000003C02401054002780B483B000AF786027
:105290007B6800221A607B6800225A607B680022CB
:1052A0009A607B680022DA607B6818460C37BD463E
:1052B0005DF8047B704780B586B000AF786000F081
:1052C000A7FA7861786900F089FA386107F10C0370
:1052D00040F2EB3118460AF027FA7B681B68002B76
:1052E00006D07B681B687A699A4201D0012300E0EE
:1052F0000023002B2CD07B681B68184600F06EFA48
:1053000002463B699342CCBF01230023DBB2002B52
:1053100005D07B681B683969184600F06BFA7B681A
:105320001B68002B06D07B681B687A699A4201D003
:10533000012300E00023002B07D07A684FF0FF30F4
:105340006FF0004100F08CFAE9E77B6800225A60B8
:105350007B687A691A607B683A699A607B685B68E7
:105360005A1C7B685A6007F10C0318460AF0ECF9E6
:1053700000F0E0F900BF1837BD4680BD80B586B0AB
:1053800000AF786000F044FA786100233B617B68ED
:105390001B687A699A4214BF01230023DBB2002BF9
:1053A00040D17B685B685A1E7B685A607B685B688B
:1053B000002BCCBF01230023DBB2002B34D107F13B
:1053C0000C0340F2EB3118460AF0AEF97B6800227C
:1053D0001A60786800F03CFC38613B69002B05D00E
:1053E0007B683A691A60386900F01EFA07F10C030D
:1053F00018460AF0A9F97B689B681846FBF740FD40
:105400007B6800229A603B69002B05D07B689B6813
:10541000002B01D1012300E00023002B05D000F078
:1054200089F902E000BF00E000BF1837BD4680BD2B
:1054300080B400AF044B00221A7001231846BD4609
:105440005DF8047B704700BF2400002080B400AFEB
:10545000044B01221A7001231846BD465DF8047BF7
:10546000704700BF2400002080B582B000AF786094
:10547000044B1B687A681A6200F026F800BF0837F0
:10548000BD4680BD6800002098B500AF0B4B1A6880
:105490004FF000034FF00004C2E90A34074B1B68C9
:1054A000074A1360074B01221A70044B1B68184609
:1054B00000F078F907F018FB00BF98BD2800002025
:1054C0006800002000A2002090B585B000AF1C4B02
:1054D000D3E90034591C44F10002194BC3E900120E
:1054E000184BD3E90034C7E90234D7E90234234327
:1054F00003D109F0D5FFC7E90201124A4FF00003BA
:105500004FF00004C2E900340F4B1B687B607B68DE
:10551000002B04D1D7E9020100F0C8FA78600A4BE9
:1055200000221A60064BD3E900347A68C2E91234CB
:10553000786800F037F900BF1437BD4690BD00BF52
:10554000D0A20020E0A20020D8A2002090B400AF9A
:10555000034BD3E9003418462146BD4690BC704742
:10556000D0A2002080B483B000AF786039607B683F
:10557000012B09D13B684FF6FF72934204D1054BD2
:1055800023F00703044A136000BF0C37BD465DF8E3
:10559000047B7047C4A20020C8A2002080B500AFE1
:1055A0004FF6FF710120FFF7DDFF80BD0000000016
:1055B00090B585B000AFF860B9607A603B60F8687C
:1055C0000023BA682449FAF7FFFE244AFB681A60F0
:1055D000FB6800225A62FA684FF000034FF00004A3
:1055E000C2E90A34FB6800221A63FA684FF0FF33FD
:1055F0006FF00044C2E90E34FA684FF000034FF038
:105600000004C2E91034FA684FF000034FF00004C0
:10561000C2E91234FB683A685A61FB685B69184654
:10562000FAF74AFF0246FB68DA61FB68DB691A4653
:10563000FB685B691344043B23F007031A46FB68CD
:105640009A61FB687A685A62F86800F009F8FB68AA
:1056500018461437BD4690BD6C000020140E01089A
:1056600080B584B000AF78607B689B69FB607B6825
:10567000DB691A46FB689A4206DCFB68094A1A6035
:10568000FB68043BFB60F2E77B689B69796818461E
:1056900007F0F8F902467B681A6200BF1037BD4672
:1056A00080BD00BFEFBEADDE90B583B000AF7860C7
:1056B0000F4A7B681A600F4B1B78002B01D0002427
:1056C0000CE07B6818460AF091F8034619460A4830
:1056D000FAF7CEFF0948FBF74BF801247B68184620
:1056E000FAF7B0FE012C7B6818460C37BD4690BD1A
:1056F000140E010818AB0020300D0108340D01080C
:1057000080B582B000AF78607868FFF7CDFF502198
:105710007868FBF75BFB7B6818460837BD4680BDA1
:1057200080B483B000AF786000BF0C37BD465DF831
:10573000047B704790B585B000AF174B1B7883F0A2
:105740000103DBB2002B20D109F0AAFEC7E9020158
:10575000D7E9020100F0AAF9786000F059F8024692
:105760007B6893420CBF01230023DBB2002B0ED1D8
:105770000A4A7B6813600A4AD7E90234C2E9003456
:10578000FFF70AF907F0D4F902E000BF00E000BF1C
:105790001437BD4690BD00BF24000020D8A20020D1
:1057A000E0A2002080B582B000AF7860094A7B6833
:1057B000136009484FF00001FFF7F4F8FFF7C4F851
:1057C0007B681B6A184607F0A4F900BF0837BD467E
:1057D00080BD00BF68000020A086010080B483B0B7
:1057E00000AF78607B685B6A18460C37BD465DF891
:1057F000047B704780B483B000AF786039607B6809
:105800003A685A6200BF0C37BD465DF8047B7047AA
:1058100080B400AF034B1B681846BD465DF8047B9F
:10582000704700BF6800002090B482B000AF78607D
:105830000A4A4FF000034FF00004C2E900347B68CD
:1058400000221A637A684FF000034FF00004C2E9A7
:105850000A3400BF0837BD4690BC7047E8A200205C
:1058600090B587B000AFC7E902017A60FFF7D0FFBB
:10587000786107F1100340F2EB31184609F054FF4C
:105880007B697A681A637A69D7E90234C2E90A3413
:1058900007F11003184609F057FFFFF74BFF7B692C
:1058A00000221A637B69D3E90A342343002B0CBF1F
:1058B00001230023DBB2002B01D0012300E00023F1
:1058C00018461C37BD4690BDB0B582B000AF204829
:1058D000FCF7B4FE1F4B1B687B607B68002B20D05D
:1058E0007B685C6A7B685D697B68184609F07EFFAF
:1058F00003462A4621461848FCF7A0FE7B681B6831
:105900000C331B68786898477A684FF000034FF0B3
:105910000004C2E90A347B68184609F05BFF78602E
:10592000DBE70E48FCF78AFE0A4B1B683B603B68CE
:10593000002B08D03868FFF7F3FE3B68184609F0E3
:1059400049FF3860F3E700BF0837BD46B0BD00BF70
:10595000440D01086C000020580D01087C0D010861
:1059600080B400AF00BFBD465DF8047B704790B5C2
:1059700083B000AF78600D4A7B6813607A684FF09F
:1059800000034FF00004C2E90A347B681B68083347
:105990001B68786898477A684FF0FF336FF00044CF
:1059A000C2E90A34FFF7C6FEF5E700BF6800002031
:1059B00098B500AFFFF7CAFD03460C4618462146CE
:1059C00098BD2DE9B04F86B000AFF8602C4BD3E9FD
:1059D000003413F1010844F10009294BC3E900899F
:1059E000FB6800211846FFF705FFFFF785FAFFF770
:1059F000A1FE244BD3E9004509F052FD02460B46B7
:105A0000B4EB020A65EB030BC7E904ABD7E9043436
:105A10001D494FF0FF325818386044EB02037B6099
:105A2000D7E90034C7E90434D7E9043412A2D2E933
:105A30000012994272EB0403C8DAFEF7ADFFD7E912
:105A400004014FF47A724FF0000309F073F8034633
:105A50000C4618462146FEF7A5FFFEF775FFFEF738
:105A60007BFD0A484FF00001FEF79CFFFEF76CFF3C
:105A7000ACE700BFAFF3008000460A99E8000000E1
:105A800028AB0020E8A200204039D2FFA086010008
:105A900080B582B000AF78600348FCF7CFFD00BF4F
:105AA0000837BD4680BD00BF8C0D0108F0B587B03A
:105AB00000AFC7E90001604B7B61D7E900345CA20D
:105AC000D2E900125D1844EB02065C4BC3E90056B4
:105AD0005B4B1B683B613B69002B63D03B69D3E99F
